{
  "_format": "hh-sol-artifact-1",
  "contractName": "Essences",
  "sourceName": "contracts/newnft.sol",
  "abi": [
    {
      "inputs": [
        {
          "internalType": "string",
          "name": "baseURI",
          "type": "string"
        }
      ],
      "stateMutability": "nonpayable",
      "type": "constructor"
    },
    {
      "anonymous": false,
      "inputs": [
        {
          "indexed": true,
          "internalType": "address",
          "name": "owner",
          "type": "address"
        },
        {
          "indexed": true,
          "internalType": "address",
          "name": "approved",
          "type": "address"
        },
        {
          "indexed": true,
          "internalType": "uint256",
          "name": "tokenId",
          "type": "uint256"
        }
      ],
      "name": "Approval",
      "type": "event"
    },
    {
      "anonymous": false,
      "inputs": [
        {
          "indexed": true,
          "internalType": "address",
          "name": "owner",
          "type": "address"
        },
        {
          "indexed": true,
          "internalType": "address",
          "name": "operator",
          "type": "address"
        },
        {
          "indexed": false,
          "internalType": "bool",
          "name": "approved",
          "type": "bool"
        }
      ],
      "name": "ApprovalForAll",
      "type": "event"
    },
    {
      "anonymous": false,
      "inputs": [
        {
          "indexed": true,
          "internalType": "address",
          "name": "previousOwner",
          "type": "address"
        },
        {
          "indexed": true,
          "internalType": "address",
          "name": "newOwner",
          "type": "address"
        }
      ],
      "name": "OwnershipTransferred",
      "type": "event"
    },
    {
      "anonymous": false,
      "inputs": [
        {
          "indexed": true,
          "internalType": "address",
          "name": "from",
          "type": "address"
        },
        {
          "indexed": true,
          "internalType": "address",
          "name": "to",
          "type": "address"
        },
        {
          "indexed": true,
          "internalType": "uint256",
          "name": "tokenId",
          "type": "uint256"
        }
      ],
      "name": "Transfer",
      "type": "event"
    },
    {
      "inputs": [],
      "name": "MAX_SUPPLY",
      "outputs": [
        {
          "internalType": "uint256",
          "name": "",
          "type": "uint256"
        }
      ],
      "stateMutability": "view",
      "type": "function"
    },
    {
      "inputs": [],
      "name": "MAX_SUPPLY_PER_TXN",
      "outputs": [
        {
          "internalType": "uint256",
          "name": "",
          "type": "uint256"
        }
      ],
      "stateMutability": "view",
      "type": "function"
    },
    {
      "inputs": [],
      "name": "MINT_PRICE",
      "outputs": [
        {
          "internalType": "uint256",
          "name": "",
          "type": "uint256"
        }
      ],
      "stateMutability": "view",
      "type": "function"
    },
    {
      "inputs": [
        {
          "internalType": "address[]",
          "name": "entries",
          "type": "address[]"
        }
      ],
      "name": "addToWhiteList",
      "outputs": [],
      "stateMutability": "nonpayable",
      "type": "function"
    },
    {
      "inputs": [
        {
          "internalType": "address",
          "name": "to",
          "type": "address"
        },
        {
          "internalType": "uint256",
          "name": "tokenId",
          "type": "uint256"
        }
      ],
      "name": "approve",
      "outputs": [],
      "stateMutability": "nonpayable",
      "type": "function"
    },
    {
      "inputs": [
        {
          "internalType": "address",
          "name": "owner",
          "type": "address"
        }
      ],
      "name": "balanceOf",
      "outputs": [
        {
          "internalType": "uint256",
          "name": "",
          "type": "uint256"
        }
      ],
      "stateMutability": "view",
      "type": "function"
    },
    {
      "inputs": [],
      "name": "baseTokenURI",
      "outputs": [
        {
          "internalType": "string",
          "name": "",
          "type": "string"
        }
      ],
      "stateMutability": "view",
      "type": "function"
    },
    {
      "inputs": [],
      "name": "flipMintState",
      "outputs": [],
      "stateMutability": "nonpayable",
      "type": "function"
    },
    {
      "inputs": [],
      "name": "flipwhitelistState",
      "outputs": [],
      "stateMutability": "nonpayable",
      "type": "function"
    },
    {
      "inputs": [
        {
          "internalType": "uint256",
          "name": "tokenId",
          "type": "uint256"
        }
      ],
      "name": "getApproved",
      "outputs": [
        {
          "internalType": "address",
          "name": "",
          "type": "address"
        }
      ],
      "stateMutability": "view",
      "type": "function"
    },
    {
      "inputs": [
        {
          "internalType": "address",
          "name": "owner",
          "type": "address"
        },
        {
          "internalType": "address",
          "name": "operator",
          "type": "address"
        }
      ],
      "name": "isApprovedForAll",
      "outputs": [
        {
          "internalType": "bool",
          "name": "",
          "type": "bool"
        }
      ],
      "stateMutability": "view",
      "type": "function"
    },
    {
      "inputs": [
        {
          "internalType": "address",
          "name": "addr",
          "type": "address"
        }
      ],
      "name": "isWhiteList",
      "outputs": [
        {
          "internalType": "bool",
          "name": "",
          "type": "bool"
        }
      ],
      "stateMutability": "view",
      "type": "function"
    },
    {
      "inputs": [
        {
          "internalType": "uint256",
          "name": "numberOfEssences",
          "type": "uint256"
        }
      ],
      "name": "mintEssences",
      "outputs": [],
      "stateMutability": "payable",
      "type": "function"
    },
    {
      "inputs": [],
      "name": "mintFromWhitelist",
      "outputs": [],
      "stateMutability": "payable",
      "type": "function"
    },
    {
      "inputs": [],
      "name": "mintIsActive",
      "outputs": [
        {
          "internalType": "bool",
          "name": "",
          "type": "bool"
        }
      ],
      "stateMutability": "view",
      "type": "function"
    },
    {
      "inputs": [],
      "name": "mintingIsActive",
      "outputs": [
        {
          "internalType": "bool",
          "name": "",
          "type": "bool"
        }
      ],
      "stateMutability": "view",
      "type": "function"
    },
    {
      "inputs": [],
      "name": "name",
      "outputs": [
        {
          "internalType": "string",
          "name": "",
          "type": "string"
        }
      ],
      "stateMutability": "view",
      "type": "function"
    },
    {
      "inputs": [],
      "name": "owner",
      "outputs": [
        {
          "internalType": "address",
          "name": "",
          "type": "address"
        }
      ],
      "stateMutability": "view",
      "type": "function"
    },
    {
      "inputs": [
        {
          "internalType": "uint256",
          "name": "tokenId",
          "type": "uint256"
        }
      ],
      "name": "ownerOf",
      "outputs": [
        {
          "internalType": "address",
          "name": "",
          "type": "address"
        }
      ],
      "stateMutability": "view",
      "type": "function"
    },
    {
      "inputs": [],
      "name": "renounceOwnership",
      "outputs": [],
      "stateMutability": "nonpayable",
      "type": "function"
    },
    {
      "inputs": [
        {
          "internalType": "address",
          "name": "addr",
          "type": "address"
        },
        {
          "internalType": "uint256",
          "name": "numberOfEssences",
          "type": "uint256"
        }
      ],
      "name": "reserveEssences",
      "outputs": [],
      "stateMutability": "nonpayable",
      "type": "function"
    },
    {
      "inputs": [
        {
          "internalType": "address[]",
          "name": "entries",
          "type": "address[]"
        }
      ],
      "name": "reserveMultipleEssences",
      "outputs": [],
      "stateMutability": "nonpayable",
      "type": "function"
    },
    {
      "inputs": [
        {
          "internalType": "address",
          "name": "from",
          "type": "address"
        },
        {
          "internalType": "address",
          "name": "to",
          "type": "address"
        },
        {
          "internalType": "uint256",
          "name": "tokenId",
          "type": "uint256"
        }
      ],
      "name": "safeTransferFrom",
      "outputs": [],
      "stateMutability": "nonpayable",
      "type": "function"
    },
    {
      "inputs": [
        {
          "internalType": "address",
          "name": "from",
          "type": "address"
        },
        {
          "internalType": "address",
          "name": "to",
          "type": "address"
        },
        {
          "internalType": "uint256",
          "name": "tokenId",
          "type": "uint256"
        },
        {
          "internalType": "bytes",
          "name": "_data",
          "type": "bytes"
        }
      ],
      "name": "safeTransferFrom",
      "outputs": [],
      "stateMutability": "nonpayable",
      "type": "function"
    },
    {
      "inputs": [
        {
          "internalType": "address",
          "name": "operator",
          "type": "address"
        },
        {
          "internalType": "bool",
          "name": "approved",
          "type": "bool"
        }
      ],
      "name": "setApprovalForAll",
      "outputs": [],
      "stateMutability": "nonpayable",
      "type": "function"
    },
    {
      "inputs": [
        {
          "internalType": "string",
          "name": "baseURI",
          "type": "string"
        }
      ],
      "name": "setBaseURI",
      "outputs": [],
      "stateMutability": "nonpayable",
      "type": "function"
    },
    {
      "inputs": [
        {
          "internalType": "bytes4",
          "name": "interfaceId",
          "type": "bytes4"
        }
      ],
      "name": "supportsInterface",
      "outputs": [
        {
          "internalType": "bool",
          "name": "",
          "type": "bool"
        }
      ],
      "stateMutability": "view",
      "type": "function"
    },
    {
      "inputs": [],
      "name": "symbol",
      "outputs": [
        {
          "internalType": "string",
          "name": "",
          "type": "string"
        }
      ],
      "stateMutability": "view",
      "type": "function"
    },
    {
      "inputs": [
        {
          "internalType": "uint256",
          "name": "index",
          "type": "uint256"
        }
      ],
      "name": "tokenByIndex",
      "outputs": [
        {
          "internalType": "uint256",
          "name": "",
          "type": "uint256"
        }
      ],
      "stateMutability": "view",
      "type": "function"
    },
    {
      "inputs": [
        {
          "internalType": "address",
          "name": "owner",
          "type": "address"
        },
        {
          "internalType": "uint256",
          "name": "index",
          "type": "uint256"
        }
      ],
      "name": "tokenOfOwnerByIndex",
      "outputs": [
        {
          "internalType": "uint256",
          "name": "",
          "type": "uint256"
        }
      ],
      "stateMutability": "view",
      "type": "function"
    },
    {
      "inputs": [
        {
          "internalType": "uint256",
          "name": "tokenId",
          "type": "uint256"
        }
      ],
      "name": "tokenURI",
      "outputs": [
        {
          "internalType": "string",
          "name": "",
          "type": "string"
        }
      ],
      "stateMutability": "view",
      "type": "function"
    },
    {
      "inputs": [],
      "name": "totalSupply",
      "outputs": [
        {
          "internalType": "uint256",
          "name": "",
          "type": "uint256"
        }
      ],
      "stateMutability": "view",
      "type": "function"
    },
    {
      "inputs": [
        {
          "internalType": "address",
          "name": "from",
          "type": "address"
        },
        {
          "internalType": "address",
          "name": "to",
          "type": "address"
        },
        {
          "internalType": "uint256",
          "name": "tokenId",
          "type": "uint256"
        }
      ],
      "name": "transferFrom",
      "outputs": [],
      "stateMutability": "nonpayable",
      "type": "function"
    },
    {
      "inputs": [
        {
          "internalType": "address",
          "name": "newOwner",
          "type": "address"
        }
      ],
      "name": "transferOwnership",
      "outputs": [],
      "stateMutability": "nonpayable",
      "type": "function"
    },
    {
      "inputs": [
        {
          "internalType": "address",
          "name": "",
          "type": "address"
        }
      ],
      "name": "whiteList",
      "outputs": [
        {
          "internalType": "bool",
          "name": "",
          "type": "bool"
        }
      ],
      "stateMutability": "view",
      "type": "function"
    },
    {
      "inputs": [],
      "name": "whitelistIsActive",
      "outputs": [
        {
          "internalType": "bool",
          "name": "",
          "type": "bool"
        }
      ],
      "stateMutability": "view",
      "type": "function"
    },
    {
      "inputs": [],
      "name": "withdrawAll",
      "outputs": [],
      "stateMutability": "nonpayable",
      "type": "function"
    }
  ],
  "bytecode": "0x60806040526000600c60006101000a81548160ff0219169083151502179055506000600c60016101000a81548160ff0219169083151502179055506000600c60026101000a81548160ff0219169083151502179055503480156200006257600080fd5b5060405162004fc638038062004fc683398181016040528101906200008891906200042d565b6040518060400160405280600e81526020017f466f756e7461696e4f664c6966650000000000000000000000000000000000008152506040518060400160405280600781526020017f457373656e63650000000000000000000000000000000000000000000000000081525081600090805190602001906200010c9291906200030b565b508060019080519060200190620001259291906200030b565b505050620001486200013c6200016860201b60201c565b6200017060201b60201c565b6001600b8190555062000161816200023660201b60201c565b5062000618565b600033905090565b6000600a60009054906101000a900473ffffffffffffffffffffffffffffffffffffffff16905081600a60006101000a81548173ffffffffffffffffffffffffffffffffffffffff021916908373ffffffffffffffffffffffffffffffffffffffff1602179055508173ffffffffffffffffffffffffffffffffffffffff168173ffffffffffffffffffffffffffffffffffffffff167f8be0079c531659141344cd1fd0a4f28419497f9722a3daafe3b4186f6b6457e060405160405180910390a35050565b620002466200016860201b60201c565b73ffffffffffffffffffffffffffffffffffffffff166200026c620002e160201b60201c565b73ffffffffffffffffffffffffffffffffffffffff1614620002c5576040517f08c379a0000000000000000000000000000000000000000000000000000000008152600401620002bc90620004b4565b60405180910390fd5b80600d9080519060200190620002dd9291906200030b565b5050565b6000600a60009054906101000a900473ffffffffffffffffffffffffffffffffffffffff16905090565b828054620003199062000584565b90600052602060002090601f0160209004810192826200033d576000855562000389565b82601f106200035857805160ff191683800117855562000389565b8280016001018555821562000389579182015b82811115620003885782518255916020019190600101906200036b565b5b5090506200039891906200039c565b5090565b5b80821115620003b75760008160009055506001016200039d565b5090565b6000620003d2620003cc846200050a565b620004d6565b905082815260208101848484011115620003eb57600080fd5b620003f88482856200054e565b509392505050565b600082601f8301126200041257600080fd5b815162000424848260208601620003bb565b91505092915050565b6000602082840312156200044057600080fd5b600082015167ffffffffffffffff8111156200045b57600080fd5b620004698482850162000400565b91505092915050565b6000620004816020836200053d565b91507f4f776e61626c653a2063616c6c6572206973206e6f7420746865206f776e65726000830152602082019050919050565b60006020820190508181036000830152620004cf8162000472565b9050919050565b6000604051905081810181811067ffffffffffffffff821117156200050057620004ff620005e9565b5b8060405250919050565b600067ffffffffffffffff821115620005285762000527620005e9565b5b601f19601f8301169050602081019050919050565b600082825260208201905092915050565b60005b838110156200056e57808201518184015260208101905062000551565b838111156200057e576000848401525b50505050565b600060028204905060018216806200059d57607f821691505b60208210811415620005b457620005b3620005ba565b5b50919050565b7f4e487b7100000000000000000000000000000000000000000000000000000000600052602260045260246000fd5b7f4e487b7100000000000000000000000000000000000000000000000000000000600052604160045260246000fd5b61499e80620006286000396000f3fe60806040526004361061021a5760003560e01c80636352211e11610123578063a22cb465116100ab578063d547cfb71161006f578063d547cfb71461077d578063d75ae170146107a8578063e985e9c5146107d3578063f2fde38b14610810578063f99031a7146108395761021a565b8063a22cb465146106ac578063ac984b2f146106d5578063b88d4fde146106ec578063c002d23d14610715578063c87b56dd146107405761021a565b8063853828b6116100f2578063853828b61461060c578063895966b8146106235780638da5cb5b1461064c578063939d98af1461067757806395d89b41146106815761021a565b80636352211e1461055257806370a082311461058f578063715018a6146105cc578063740d73f3146105e35761021a565b80632f745c59116101a6578063471a429411610175578063471a42941461047f5780634728b9f4146104aa5780634f6ccce7146104d557806355f804b31461051257806359c74f291461053b5761021a565b80632f745c59146103b157806332cb6b0c146103ee578063372c12b11461041957806342842e0e146104565761021a565b806318160ddd116101ed57806318160ddd146102ed578063195f5aed146103185780631fe70d6f1461033457806323b872dd1461035f5780632b4b6b89146103885761021a565b806301ffc9a71461021f57806306fdde031461025c578063081812fc14610287578063095ea7b3146102c4575b600080fd5b34801561022b57600080fd5b506102466004803603810190610241919061363f565b610876565b604051610253919061415c565b60405180910390f35b34801561026857600080fd5b506102716108f0565b60405161027e9190614177565b60405180910390f35b34801561029357600080fd5b506102ae60048036038101906102a991906136d2565b610982565b6040516102bb91906140f5565b60405180910390f35b3480156102d057600080fd5b506102eb60048036038101906102e691906135be565b610a07565b005b3480156102f957600080fd5b50610302610b1f565b60405161030f91906144d9565b60405180910390f35b610332600480360381019061032d91906136d2565b610b2c565b005b34801561034057600080fd5b50610349610cbe565b604051610356919061415c565b60405180910390f35b34801561036b57600080fd5b50610386600480360381019061038191906134b8565b610cd1565b005b34801561039457600080fd5b506103af60048036038101906103aa91906135fa565b610d31565b005b3480156103bd57600080fd5b506103d860048036038101906103d391906135be565b610eee565b6040516103e591906144d9565b60405180910390f35b3480156103fa57600080fd5b50610403610f93565b60405161041091906144d9565b60405180910390f35b34801561042557600080fd5b50610440600480360381019061043b9190613453565b610f99565b60405161044d919061415c565b60405180910390f35b34801561046257600080fd5b5061047d600480360381019061047891906134b8565b610fb9565b005b34801561048b57600080fd5b50610494610fd9565b6040516104a1919061415c565b60405180910390f35b3480156104b657600080fd5b506104bf610fec565b6040516104cc919061415c565b60405180910390f35b3480156104e157600080fd5b506104fc60048036038101906104f791906136d2565b610fff565b60405161050991906144d9565b60405180910390f35b34801561051e57600080fd5b5061053960048036038101906105349190613691565b611096565b005b34801561054757600080fd5b5061055061112c565b005b34801561055e57600080fd5b50610579600480360381019061057491906136d2565b6111d4565b60405161058691906140f5565b60405180910390f35b34801561059b57600080fd5b506105b660048036038101906105b19190613453565b611286565b6040516105c391906144d9565b60405180910390f35b3480156105d857600080fd5b506105e161133e565b005b3480156105ef57600080fd5b5061060a600480360381019061060591906135fa565b6113c6565b005b34801561061857600080fd5b50610621611610565b005b34801561062f57600080fd5b5061064a600480360381019061064591906135be565b6116d5565b005b34801561065857600080fd5b50610661611839565b60405161066e91906140f5565b60405180910390f35b61067f611863565b005b34801561068d57600080fd5b50610696611a27565b6040516106a39190614177565b60405180910390f35b3480156106b857600080fd5b506106d360048036038101906106ce9190613582565b611ab9565b005b3480156106e157600080fd5b506106ea611c3a565b005b3480156106f857600080fd5b50610713600480360381019061070e9190613507565b611ce2565b005b34801561072157600080fd5b5061072a611d44565b60405161073791906144d9565b60405180910390f35b34801561074c57600080fd5b50610767600480360381019061076291906136d2565b611d4f565b6040516107749190614177565b60405180910390f35b34801561078957600080fd5b50610792611df6565b60405161079f9190614177565b60405180910390f35b3480156107b457600080fd5b506107bd611e84565b6040516107ca91906144d9565b60405180910390f35b3480156107df57600080fd5b506107fa60048036038101906107f5919061347c565b611e89565b604051610807919061415c565b60405180910390f35b34801561081c57600080fd5b5061083760048036038101906108329190613453565b611f1d565b005b34801561084557600080fd5b50610860600480360381019061085b9190613453565b612015565b60405161086d919061415c565b60405180910390f35b60007f780e9d63000000000000000000000000000000000000000000000000000000007bffffffffffffffffffffffffffffffffffffffffffffffffffffffff1916827bffffffffffffffffffffffffffffffffffffffffffffffffffffffff191614806108e957506108e88261206b565b5b9050919050565b6060600080546108ff90614793565b80601f016020809104026020016040519081016040528092919081815260200182805461092b90614793565b80156109785780601f1061094d57610100808354040283529160200191610978565b820191906000526020600020905b81548152906001019060200180831161095b57829003601f168201915b5050505050905090565b600061098d8261214d565b6109cc576040517f08c379a00000000000000000000000000000000000000000000000000000000081526004016109c390614399565b60405180910390fd5b6004600083815260200190815260200160002060009054906101000a900473ffffffffffffffffffffffffffffffffffffffff169050919050565b6000610a12826111d4565b90508073ffffffffffffffffffffffffffffffffffffffff168373ffffffffffffffffffffffffffffffffffffffff161415610a83576040517f08c379a0000000000000000000000000000000000000000000000000000000008152600401610a7a90614439565b60405180910390fd5b8073ffffffffffffffffffffffffffffffffffffffff16610aa26121b9565b73ffffffffffffffffffffffffffffffffffffffff161480610ad15750610ad081610acb6121b9565b611e89565b5b610b10576040517f08c379a0000000000000000000000000000000000000000000000000000000008152600401610b0790614319565b60405180910390fd5b610b1a83836121c1565b505050565b6000600880549050905090565b600c60009054906101000a900460ff16610b7b576040517f08c379a0000000000000000000000000000000000000000000000000000000008152600401610b7290614199565b60405180910390fd5b600081118015610b8c5750600a8111155b610bcb576040517f08c379a0000000000000000000000000000000000000000000000000000000008152600401610bc290614299565b60405180910390fd5b6103e8610be882610bda610b1f565b61227a90919063ffffffff16565b1115610c29576040517f08c379a0000000000000000000000000000000000000000000000000000000008152600401610c2090614499565b60405180910390fd5b34610c448266b1a2bc2ec5000061229090919063ffffffff16565b1115610c85576040517f08c379a0000000000000000000000000000000000000000000000000000000008152600401610c7c906142b9565b60405180910390fd5b60005b81811015610cba576000610c9a610b1f565b9050610ca633826122a6565b508080610cb2906147c5565b915050610c88565b5050565b600c60019054906101000a900460ff1681565b610ce2610cdc6121b9565b826122c4565b610d21576040517f08c379a0000000000000000000000000000000000000000000000000000000008152600401610d1890614459565b60405180910390fd5b610d2c8383836123a2565b505050565b610d396121b9565b73ffffffffffffffffffffffffffffffffffffffff16610d57611839565b73ffffffffffffffffffffffffffffffffffffffff1614610dad576040517f08c379a0000000000000000000000000000000000000000000000000000000008152600401610da4906143d9565b60405180910390fd5b6103e8610dcd83839050610dbf610b1f565b61227a90919063ffffffff16565b1115610e0e576040517f08c379a0000000000000000000000000000000000000000000000000000000008152600401610e0590614499565b60405180910390fd5b600c60009054906101000a900460ff1615610e5e576040517f08c379a0000000000000000000000000000000000000000000000000000000008152600401610e55906144b9565b60405180910390fd5b60005b82829050811015610ee9576000838383818110610ea7577f4e487b7100000000000000000000000000000000000000000000000000000000600052603260045260246000fd5b9050602002016020810190610ebc9190613453565b90506000610ec8610b1f565b9050610ed482826122a6565b50508080610ee1906147c5565b915050610e61565b505050565b6000610ef983611286565b8210610f3a576040517f08c379a0000000000000000000000000000000000000000000000000000000008152600401610f31906141d9565b60405180910390fd5b600660008473ffffffffffffffffffffffffffffffffffffffff1673ffffffffffffffffffffffffffffffffffffffff168152602001908152602001600020600083815260200190815260200160002054905092915050565b6103e881565b600e6020528060005260406000206000915054906101000a900460ff1681565b610fd483838360405180602001604052806000815250611ce2565b505050565b600c60009054906101000a900460ff1681565b600c60029054906101000a900460ff1681565b6000611009610b1f565b821061104a576040517f08c379a000000000000000000000000000000000000000000000000000000000815260040161104190614479565b60405180910390fd5b60088281548110611084577f4e487b7100000000000000000000000000000000000000000000000000000000600052603260045260246000fd5b90600052602060002001549050919050565b61109e6121b9565b73ffffffffffffffffffffffffffffffffffffffff166110bc611839565b73ffffffffffffffffffffffffffffffffffffffff1614611112576040517f08c379a0000000000000000000000000000000000000000000000000000000008152600401611109906143d9565b60405180910390fd5b80600d908051906020019061112892919061322d565b5050565b6111346121b9565b73ffffffffffffffffffffffffffffffffffffffff16611152611839565b73ffffffffffffffffffffffffffffffffffffffff16146111a8576040517f08c379a000000000000000000000000000000000000000000000000000000000815260040161119f906143d9565b60405180910390fd5b600c60009054906101000a900460ff1615600c60006101000a81548160ff021916908315150217905550565b6000806002600084815260200190815260200160002060009054906101000a900473ffffffffffffffffffffffffffffffffffffffff169050600073ffffffffffffffffffffffffffffffffffffffff168173ffffffffffffffffffffffffffffffffffffffff16141561127d576040517f08c379a000000000000000000000000000000000000000000000000000000000815260040161127490614359565b60405180910390fd5b80915050919050565b60008073ffffffffffffffffffffffffffffffffffffffff168273ffffffffffffffffffffffffffffffffffffffff1614156112f7576040517f08c379a00000000000000000000000000000000000000000000000000000000081526004016112ee90614339565b60405180910390fd5b600360008373ffffffffffffffffffffffffffffffffffffffff1673ffffffffffffffffffffffffffffffffffffffff168152602001908152602001600020549050919050565b6113466121b9565b73ffffffffffffffffffffffffffffffffffffffff16611364611839565b73ffffffffffffffffffffffffffffffffffffffff16146113ba576040517f08c379a00000000000000000000000000000000000000000000000000000000081526004016113b1906143d9565b60405180910390fd5b6113c460006125fe565b565b6113ce6121b9565b73ffffffffffffffffffffffffffffffffffffffff166113ec611839565b73ffffffffffffffffffffffffffffffffffffffff1614611442576040517f08c379a0000000000000000000000000000000000000000000000000000000008152600401611439906143d9565b60405180910390fd5b60005b8282905081101561160b57600083838381811061148b577f4e487b7100000000000000000000000000000000000000000000000000000000600052603260045260246000fd5b90506020020160208101906114a09190613453565b9050600073ffffffffffffffffffffffffffffffffffffffff168173ffffffffffffffffffffffffffffffffffffffff161415611512576040517f08c379a0000000000000000000000000000000000000000000000000000000008152600401611509906141b9565b60405180910390fd5b600e60008273ffffffffffffffffffffffffffffffffffffffff1673ffffffffffffffffffffffffffffffffffffffff16815260200190815260200160002060009054906101000a900460ff161561159f576040517f08c379a0000000000000000000000000000000000000000000000000000000008152600401611596906142f9565b60405180910390fd5b6001600e60008373ffffffffffffffffffffffffffffffffffffffff1673ffffffffffffffffffffffffffffffffffffffff16815260200190815260200160002060006101000a81548160ff021916908315150217905550508080611603906147c5565b915050611445565b505050565b6116186121b9565b73ffffffffffffffffffffffffffffffffffffffff16611636611839565b73ffffffffffffffffffffffffffffffffffffffff161461168c576040517f08c379a0000000000000000000000000000000000000000000000000000000008152600401611683906143d9565b60405180910390fd5b3373ffffffffffffffffffffffffffffffffffffffff166108fc479081150290604051600060405180830381858888f193505050501580156116d2573d6000803e3d6000fd5b50565b6116dd6121b9565b73ffffffffffffffffffffffffffffffffffffffff166116fb611839565b73ffffffffffffffffffffffffffffffffffffffff1614611751576040517f08c379a0000000000000000000000000000000000000000000000000000000008152600401611748906143d9565b60405180910390fd5b6103e861176e82611760610b1f565b61227a90919063ffffffff16565b11156117af576040517f08c379a00000000000000000000000000000000000000000000000000000000081526004016117a690614499565b60405180910390fd5b600c60009054906101000a900460ff16156117ff576040517f08c379a00000000000000000000000000000000000000000000000000000000081526004016117f6906144b9565b60405180910390fd5b60005b81811015611834576000611814610b1f565b905061182084826122a6565b50808061182c906147c5565b915050611802565b505050565b6000600a60009054906101000a900473ffffffffffffffffffffffffffffffffffffffff16905090565b600c60019054906101000a900460ff166118b2576040517f08c379a00000000000000000000000000000000000000000000000000000000081526004016118a990614199565b60405180910390fd5b6103e86118d060016118c2610b1f565b61227a90919063ffffffff16565b1115611911576040517f08c379a000000000000000000000000000000000000000000000000000000000815260040161190890614499565b60405180910390fd5b3461192d600166b1a2bc2ec5000061229090919063ffffffff16565b111561196e576040517f08c379a0000000000000000000000000000000000000000000000000000000008152600401611965906142b9565b60405180910390fd5b61197733612015565b6119b6576040517f08c379a00000000000000000000000000000000000000000000000000000000081526004016119ad906143b9565b60405180910390fd5b6000600e60003373ffffffffffffffffffffffffffffffffffffffff1673ffffffffffffffffffffffffffffffffffffffff16815260200190815260200160002060006101000a81548160ff0219169083151502179055506000611a18610b1f565b9050611a2433826122a6565b50565b606060018054611a3690614793565b80601f0160208091040260200160405190810160405280929190818152602001828054611a6290614793565b8015611aaf5780601f10611a8457610100808354040283529160200191611aaf565b820191906000526020600020905b815481529060010190602001808311611a9257829003601f168201915b5050505050905090565b611ac16121b9565b73ffffffffffffffffffffffffffffffffffffffff168273ffffffffffffffffffffffffffffffffffffffff161415611b2f576040517f08c379a0000000000000000000000000000000000000000000000000000000008152600401611b2690614279565b60405180910390fd5b8060056000611b3c6121b9565b73ffffffffffffffffffffffffffffffffffffffff1673ffffffffffffffffffffffffffffffffffffffff16815260200190815260200160002060008473ffffffffffffffffffffffffffffffffffffffff1673ffffffffffffffffffffffffffffffffffffffff16815260200190815260200160002060006101000a81548160ff0219169083151502179055508173ffffffffffffffffffffffffffffffffffffffff16611be96121b9565b73ffffffffffffffffffffffffffffffffffffffff167f17307eab39ab6107e8899845ad3d59bd9653f200f220920489ca2b5937696c3183604051611c2e919061415c565b60405180910390a35050565b611c426121b9565b73ffffffffffffffffffffffffffffffffffffffff16611c60611839565b73ffffffffffffffffffffffffffffffffffffffff1614611cb6576040517f08c379a0000000000000000000000000000000000000000000000000000000008152600401611cad906143d9565b60405180910390fd5b600c60019054906101000a900460ff1615600c60016101000a81548160ff021916908315150217905550565b611cf3611ced6121b9565b836122c4565b611d32576040517f08c379a0000000000000000000000000000000000000000000000000000000008152600401611d2990614459565b60405180910390fd5b611d3e848484846126c4565b50505050565b66b1a2bc2ec5000081565b6060611d5a8261214d565b611d99576040517f08c379a0000000000000000000000000000000000000000000000000000000008152600401611d9090614419565b60405180910390fd5b6000611da3612720565b90506000815111611dc35760405180602001604052806000815250611dee565b80611dcd846127b2565b604051602001611dde9291906140d1565b6040516020818303038152906040525b915050919050565b600d8054611e0390614793565b80601f0160208091040260200160405190810160405280929190818152602001828054611e2f90614793565b8015611e7c5780601f10611e5157610100808354040283529160200191611e7c565b820191906000526020600020905b815481529060010190602001808311611e5f57829003601f168201915b505050505081565b600a81565b6000600560008473ffffffffffffffffffffffffffffffffffffffff1673ffffffffffffffffffffffffffffffffffffffff16815260200190815260200160002060008373ffffffffffffffffffffffffffffffffffffffff1673ffffffffffffffffffffffffffffffffffffffff16815260200190815260200160002060009054906101000a900460ff16905092915050565b611f256121b9565b73ffffffffffffffffffffffffffffffffffffffff16611f43611839565b73ffffffffffffffffffffffffffffffffffffffff1614611f99576040517f08c379a0000000000000000000000000000000000000000000000000000000008152600401611f90906143d9565b60405180910390fd5b600073ffffffffffffffffffffffffffffffffffffffff168173ffffffffffffffffffffffffffffffffffffffff161415612009576040517f08c379a000000000000000000000000000000000000000000000000000000000815260040161200090614219565b60405180910390fd5b612012816125fe565b50565b6000600e60008373ffffffffffffffffffffffffffffffffffffffff1673ffffffffffffffffffffffffffffffffffffffff16815260200190815260200160002060009054906101000a900460ff169050919050565b60007f80ac58cd000000000000000000000000000000000000000000000000000000007bffffffffffffffffffffffffffffffffffffffffffffffffffffffff1916827bffffffffffffffffffffffffffffffffffffffffffffffffffffffff1916148061213657507f5b5e139f000000000000000000000000000000000000000000000000000000007bffffffffffffffffffffffffffffffffffffffffffffffffffffffff1916827bffffffffffffffffffffffffffffffffffffffffffffffffffffffff1916145b8061214657506121458261295f565b5b9050919050565b60008073ffffffffffffffffffffffffffffffffffffffff166002600084815260200190815260200160002060009054906101000a900473ffffffffffffffffffffffffffffffffffffffff1673ffffffffffffffffffffffffffffffffffffffff1614159050919050565b600033905090565b816004600083815260200190815260200160002060006101000a81548173ffffffffffffffffffffffffffffffffffffffff021916908373ffffffffffffffffffffffffffffffffffffffff160217905550808273ffffffffffffffffffffffffffffffffffffffff16612234836111d4565b73ffffffffffffffffffffffffffffffffffffffff167f8c5be1e5ebec7d5bd14f71427d1e84f3dd0314c0f7b2291e5b200ac8c7c3b92560405160405180910390a45050565b6000818361228891906145c8565b905092915050565b6000818361229e919061464f565b905092915050565b6122c08282604051806020016040528060008152506129c9565b5050565b60006122cf8261214d565b61230e576040517f08c379a0000000000000000000000000000000000000000000000000000000008152600401612305906142d9565b60405180910390fd5b6000612319836111d4565b90508073ffffffffffffffffffffffffffffffffffffffff168473ffffffffffffffffffffffffffffffffffffffff16148061238857508373ffffffffffffffffffffffffffffffffffffffff1661237084610982565b73ffffffffffffffffffffffffffffffffffffffff16145b8061239957506123988185611e89565b5b91505092915050565b8273ffffffffffffffffffffffffffffffffffffffff166123c2826111d4565b73ffffffffffffffffffffffffffffffffffffffff1614612418576040517f08c379a000000000000000000000000000000000000000000000000000000000815260040161240f906143f9565b60405180910390fd5b600073ffffffffffffffffffffffffffffffffffffffff168273ffffffffffffffffffffffffffffffffffffffff161415612488576040517f08c379a000000000000000000000000000000000000000000000000000000000815260040161247f90614259565b60405180910390fd5b612493838383612a24565b61249e6000826121c1565b6001600360008573ffffffffffffffffffffffffffffffffffffffff1673ffffffffffffffffffffffffffffffffffffffff16815260200190815260200160002060008282546124ee91906146a9565b925050819055506001600360008473ffffffffffffffffffffffffffffffffffffffff1673ffffffffffffffffffffffffffffffffffffffff168152602001908152602001600020600082825461254591906145c8565b92505081905550816002600083815260200190815260200160002060006101000a81548173ffffffffffffffffffffffffffffffffffffffff021916908373ffffffffffffffffffffffffffffffffffffffff160217905550808273ffffffffffffffffffffffffffffffffffffffff168473ffffffffffffffffffffffffffffffffffffffff167fddf252ad1be2c89b69c2b068fc378daa952ba7f163c4a11628f55a4df523b3ef60405160405180910390a4505050565b6000600a60009054906101000a900473ffffffffffffffffffffffffffffffffffffffff16905081600a60006101000a81548173ffffffffffffffffffffffffffffffffffffffff021916908373ffffffffffffffffffffffffffffffffffffffff1602179055508173ffffffffffffffffffffffffffffffffffffffff168173ffffffffffffffffffffffffffffffffffffffff167f8be0079c531659141344cd1fd0a4f28419497f9722a3daafe3b4186f6b6457e060405160405180910390a35050565b6126cf8484846123a2565b6126db84848484612b38565b61271a576040517f08c379a0000000000000000000000000000000000000000000000000000000008152600401612711906141f9565b60405180910390fd5b50505050565b6060600d805461272f90614793565b80601f016020809104026020016040519081016040528092919081815260200182805461275b90614793565b80156127a85780601f1061277d576101008083540402835291602001916127a8565b820191906000526020600020905b81548152906001019060200180831161278b57829003601f168201915b5050505050905090565b606060008214156127fa576040518060400160405280600181526020017f3000000000000000000000000000000000000000000000000000000000000000815250905061295a565b600082905060005b6000821461282c578080612815906147c5565b915050600a82612825919061461e565b9150612802565b60008167ffffffffffffffff81111561286e577f4e487b7100000000000000000000000000000000000000000000000000000000600052604160045260246000fd5b6040519080825280601f01601f1916602001820160405280156128a05781602001600182028036833780820191505090505b5090505b60008514612953576001826128b991906146a9565b9150600a856128c8919061480e565b60306128d491906145c8565b60f81b818381518110612910577f4e487b7100000000000000000000000000000000000000000000000000000000600052603260045260246000fd5b60200101907effffffffffffffffffffffffffffffffffffffffffffffffffffffffffffff1916908160001a905350600a8561294c919061461e565b94506128a4565b8093505050505b919050565b60007f01ffc9a7000000000000000000000000000000000000000000000000000000007bffffffffffffffffffffffffffffffffffffffffffffffffffffffff1916827bffffffffffffffffffffffffffffffffffffffffffffffffffffffff1916149050919050565b6129d38383612ccf565b6129e06000848484612b38565b612a1f576040517f08c379a0000000000000000000000000000000000000000000000000000000008152600401612a16906141f9565b60405180910390fd5b505050565b612a2f838383612e9d565b600073ffffffffffffffffffffffffffffffffffffffff168373ffffffffffffffffffffffffffffffffffffffff161415612a7257612a6d81612ea2565b612ab1565b8173ffffffffffffffffffffffffffffffffffffffff168373ffffffffffffffffffffffffffffffffffffffff1614612ab057612aaf8382612eeb565b5b5b600073ffffffffffffffffffffffffffffffffffffffff168273ffffffffffffffffffffffffffffffffffffffff161415612af457612aef81613058565b612b33565b8273ffffffffffffffffffffffffffffffffffffffff168273ffffffffffffffffffffffffffffffffffffffff1614612b3257612b31828261319b565b5b5b505050565b6000612b598473ffffffffffffffffffffffffffffffffffffffff1661321a565b15612cc2578373ffffffffffffffffffffffffffffffffffffffff1663150b7a02612b826121b9565b8786866040518563ffffffff1660e01b8152600401612ba49493929190614110565b602060405180830381600087803b158015612bbe57600080fd5b505af1925050508015612bef57506040513d601f19601f82011682018060405250810190612bec9190613668565b60015b612c72573d8060008114612c1f576040519150601f19603f3d011682016040523d82523d6000602084013e612c24565b606091505b50600081511415612c6a576040517f08c379a0000000000000000000000000000000000000000000000000000000008152600401612c61906141f9565b60405180910390fd5b805181602001fd5b63150b7a0260e01b7bffffffffffffffffffffffffffffffffffffffffffffffffffffffff1916817bffffffffffffffffffffffffffffffffffffffffffffffffffffffff191614915050612cc7565b600190505b949350505050565b600073ffffffffffffffffffffffffffffffffffffffff168273ffffffffffffffffffffffffffffffffffffffff161415612d3f576040517f08c379a0000000000000000000000000000000000000000000000000000000008152600401612d3690614379565b60405180910390fd5b612d488161214d565b15612d88576040517f08c379a0000000000000000000000000000000000000000000000000000000008152600401612d7f90614239565b60405180910390fd5b612d9460008383612a24565b6001600360008473ffffffffffffffffffffffffffffffffffffffff1673ffffffffffffffffffffffffffffffffffffffff1681526020019081526020016000206000828254612de491906145c8565b92505081905550816002600083815260200190815260200160002060006101000a81548173ffffffffffffffffffffffffffffffffffffffff021916908373ffffffffffffffffffffffffffffffffffffffff160217905550808273ffffffffffffffffffffffffffffffffffffffff16600073ffffffffffffffffffffffffffffffffffffffff167fddf252ad1be2c89b69c2b068fc378daa952ba7f163c4a11628f55a4df523b3ef60405160405180910390a45050565b505050565b6008805490506009600083815260200190815260200160002081905550600881908060018154018082558091505060019003906000526020600020016000909190919091505550565b60006001612ef884611286565b612f0291906146a9565b9050600060076000848152602001908152602001600020549050818114612fe7576000600660008673ffffffffffffffffffffffffffffffffffffffff1673ffffffffffffffffffffffffffffffffffffffff168152602001908152602001600020600084815260200190815260200160002054905080600660008773ffffffffffffffffffffffffffffffffffffffff1673ffffffffffffffffffffffffffffffffffffffff168152602001908152602001600020600084815260200190815260200160002081905550816007600083815260200190815260200160002081905550505b6007600084815260200190815260200160002060009055600660008573ffffffffffffffffffffffffffffffffffffffff1673ffffffffffffffffffffffffffffffffffffffff16815260200190815260200160002060008381526020019081526020016000206000905550505050565b6000600160088054905061306c91906146a9565b90506000600960008481526020019081526020016000205490506000600883815481106130c2577f4e487b7100000000000000000000000000000000000000000000000000000000600052603260045260246000fd5b90600052602060002001549050806008838154811061310a577f4e487b7100000000000000000000000000000000000000000000000000000000600052603260045260246000fd5b90600052602060002001819055508160096000838152602001908152602001600020819055506009600085815260200190815260200160002060009055600880548061317f577f4e487b7100000000000000000000000000000000000000000000000000000000600052603160045260246000fd5b6001900381819060005260206000200160009055905550505050565b60006131a683611286565b905081600660008573ffffffffffffffffffffffffffffffffffffffff1673ffffffffffffffffffffffffffffffffffffffff168152602001908152602001600020600083815260200190815260200160002081905550806007600084815260200190815260200160002081905550505050565b600080823b905060008111915050919050565b82805461323990614793565b90600052602060002090601f01602090048101928261325b57600085556132a2565b82601f1061327457805160ff19168380011785556132a2565b828001600101855582156132a2579182015b828111156132a1578251825591602001919060010190613286565b5b5090506132af91906132b3565b5090565b5b808211156132cc5760008160009055506001016132b4565b5090565b60006132e36132de84614525565b6144f4565b9050828152602081018484840111156132fb57600080fd5b613306848285614751565b509392505050565b600061332161331c84614555565b6144f4565b90508281526020810184848401111561333957600080fd5b613344848285614751565b509392505050565b60008135905061335b8161490c565b92915050565b60008083601f84011261337357600080fd5b8235905067ffffffffffffffff81111561338c57600080fd5b6020830191508360208202830111156133a457600080fd5b9250929050565b6000813590506133ba81614923565b92915050565b6000813590506133cf8161493a565b92915050565b6000815190506133e48161493a565b92915050565b600082601f8301126133fb57600080fd5b813561340b8482602086016132d0565b91505092915050565b600082601f83011261342557600080fd5b813561343584826020860161330e565b91505092915050565b60008135905061344d81614951565b92915050565b60006020828403121561346557600080fd5b60006134738482850161334c565b91505092915050565b6000806040838503121561348f57600080fd5b600061349d8582860161334c565b92505060206134ae8582860161334c565b9150509250929050565b6000806000606084860312156134cd57600080fd5b60006134db8682870161334c565b93505060206134ec8682870161334c565b92505060406134fd8682870161343e565b9150509250925092565b6000806000806080858703121561351d57600080fd5b600061352b8782880161334c565b945050602061353c8782880161334c565b935050604061354d8782880161343e565b925050606085013567ffffffffffffffff81111561356a57600080fd5b613576878288016133ea565b91505092959194509250565b6000806040838503121561359557600080fd5b60006135a38582860161334c565b92505060206135b4858286016133ab565b9150509250929050565b600080604083850312156135d157600080fd5b60006135df8582860161334c565b92505060206135f08582860161343e565b9150509250929050565b6000806020838503121561360d57600080fd5b600083013567ffffffffffffffff81111561362757600080fd5b61363385828601613361565b92509250509250929050565b60006020828403121561365157600080fd5b600061365f848285016133c0565b91505092915050565b60006020828403121561367a57600080fd5b6000613688848285016133d5565b91505092915050565b6000602082840312156136a357600080fd5b600082013567ffffffffffffffff8111156136bd57600080fd5b6136c984828501613414565b91505092915050565b6000602082840312156136e457600080fd5b60006136f28482850161343e565b91505092915050565b613704816146dd565b82525050565b613713816146ef565b82525050565b600061372482614585565b61372e818561459b565b935061373e818560208601614760565b613747816148fb565b840191505092915050565b600061375d82614590565b61376781856145ac565b9350613777818560208601614760565b613780816148fb565b840191505092915050565b600061379682614590565b6137a081856145bd565b93506137b0818560208601614760565b80840191505092915050565b60006137c9601f836145ac565b91507f4d7573742062652061637469766520746f206d696e7420457373656e636573006000830152602082019050919050565b6000613809600c836145ac565b91507f4e554c4c5f4144445245535300000000000000000000000000000000000000006000830152602082019050919050565b6000613849602b836145ac565b91507f455243373231456e756d657261626c653a206f776e657220696e646578206f7560008301527f74206f6620626f756e64730000000000000000000000000000000000000000006020830152604082019050919050565b60006138af6032836145ac565b91507f4552433732313a207472616e7366657220746f206e6f6e20455243373231526560008301527f63656976657220696d706c656d656e74657200000000000000000000000000006020830152604082019050919050565b60006139156026836145ac565b91507f4f776e61626c653a206e6577206f776e657220697320746865207a65726f206160008301527f64647265737300000000000000000000000000000000000000000000000000006020830152604082019050919050565b600061397b601c836145ac565b91507f4552433732313a20746f6b656e20616c7265616479206d696e746564000000006000830152602082019050919050565b60006139bb6024836145ac565b91507f4552433732313a207472616e7366657220746f20746865207a65726f2061646460008301527f72657373000000000000000000000000000000000000000000000000000000006020830152604082019050919050565b6000613a216019836145ac565b91507f4552433732313a20617070726f766520746f2063616c6c6572000000000000006000830152602082019050919050565b6000613a616031836145ac565b91507f43616e206f6e6c79206d696e74206265747765656e203020616e64203130204560008301527f7373656e63657320617420612074696d650000000000000000000000000000006020830152604082019050919050565b6000613ac7601f836145ac565b91507f45746865722076616c75652073656e74206973206e6f7420636f7272656374006000830152602082019050919050565b6000613b07602c836145ac565b91507f4552433732313a206f70657261746f7220717565727920666f72206e6f6e657860008301527f697374656e7420746f6b656e00000000000000000000000000000000000000006020830152604082019050919050565b6000613b6d600f836145ac565b91507f4455504c49434154455f454e54525900000000000000000000000000000000006000830152602082019050919050565b6000613bad6038836145ac565b91507f4552433732313a20617070726f76652063616c6c6572206973206e6f74206f7760008301527f6e6572206e6f7220617070726f76656420666f7220616c6c00000000000000006020830152604082019050919050565b6000613c13602a836145ac565b91507f4552433732313a2062616c616e636520717565727920666f7220746865207a6560008301527f726f2061646472657373000000000000000000000000000000000000000000006020830152604082019050919050565b6000613c796029836145ac565b91507f4552433732313a206f776e657220717565727920666f72206e6f6e657869737460008301527f656e7420746f6b656e00000000000000000000000000000000000000000000006020830152604082019050919050565b6000613cdf6020836145ac565b91507f4552433732313a206d696e7420746f20746865207a65726f20616464726573736000830152602082019050919050565b6000613d1f602c836145ac565b91507f4552433732313a20617070726f76656420717565727920666f72206e6f6e657860008301527f697374656e7420746f6b656e00000000000000000000000000000000000000006020830152604082019050919050565b6000613d856022836145ac565b91507f4e6f74206f6e2077686974656c697374206f722077686974656c69737420757360008301527f65640000000000000000000000000000000000000000000000000000000000006020830152604082019050919050565b6000613deb6020836145ac565b91507f4f776e61626c653a2063616c6c6572206973206e6f7420746865206f776e65726000830152602082019050919050565b6000613e2b6029836145ac565b91507f4552433732313a207472616e73666572206f6620746f6b656e2074686174206960008301527f73206e6f74206f776e00000000000000000000000000000000000000000000006020830152604082019050919050565b6000613e91602f836145ac565b91507f4552433732314d657461646174613a2055524920717565727920666f72206e6f60008301527f6e6578697374656e7420746f6b656e00000000000000000000000000000000006020830152604082019050919050565b6000613ef76021836145ac565b91507f4552433732313a20617070726f76616c20746f2063757272656e74206f776e6560008301527f72000000000000000000000000000000000000000000000000000000000000006020830152604082019050919050565b6000613f5d6031836145ac565b91507f4552433732313a207472616e736665722063616c6c6572206973206e6f74206f60008301527f776e6572206e6f7220617070726f7665640000000000000000000000000000006020830152604082019050919050565b6000613fc3602c836145ac565b91507f455243373231456e756d657261626c653a20676c6f62616c20696e646578206f60008301527f7574206f6620626f756e647300000000000000000000000000000000000000006020830152604082019050919050565b60006140296028836145ac565b91507f4d696e7420776f756c6420657863656564206d617820737570706c79206f662060008301527f457373656e6365730000000000000000000000000000000000000000000000006020830152604082019050919050565b600061408f6013836145ac565b91507f546f6f206c61746520746f2072657365727665000000000000000000000000006000830152602082019050919050565b6140cb81614747565b82525050565b60006140dd828561378b565b91506140e9828461378b565b91508190509392505050565b600060208201905061410a60008301846136fb565b92915050565b600060808201905061412560008301876136fb565b61413260208301866136fb565b61413f60408301856140c2565b81810360608301526141518184613719565b905095945050505050565b6000602082019050614171600083018461370a565b92915050565b600060208201905081810360008301526141918184613752565b905092915050565b600060208201905081810360008301526141b2816137bc565b9050919050565b600060208201905081810360008301526141d2816137fc565b9050919050565b600060208201905081810360008301526141f28161383c565b9050919050565b60006020820190508181036000830152614212816138a2565b9050919050565b6000602082019050818103600083015261423281613908565b9050919050565b600060208201905081810360008301526142528161396e565b9050919050565b60006020820190508181036000830152614272816139ae565b9050919050565b6000602082019050818103600083015261429281613a14565b9050919050565b600060208201905081810360008301526142b281613a54565b9050919050565b600060208201905081810360008301526142d281613aba565b9050919050565b600060208201905081810360008301526142f281613afa565b9050919050565b6000602082019050818103600083015261431281613b60565b9050919050565b6000602082019050818103600083015261433281613ba0565b9050919050565b6000602082019050818103600083015261435281613c06565b9050919050565b6000602082019050818103600083015261437281613c6c565b9050919050565b6000602082019050818103600083015261439281613cd2565b9050919050565b600060208201905081810360008301526143b281613d12565b9050919050565b600060208201905081810360008301526143d281613d78565b9050919050565b600060208201905081810360008301526143f281613dde565b9050919050565b6000602082019050818103600083015261441281613e1e565b9050919050565b6000602082019050818103600083015261443281613e84565b9050919050565b6000602082019050818103600083015261445281613eea565b9050919050565b6000602082019050818103600083015261447281613f50565b9050919050565b6000602082019050818103600083015261449281613fb6565b9050919050565b600060208201905081810360008301526144b28161401c565b9050919050565b600060208201905081810360008301526144d281614082565b9050919050565b60006020820190506144ee60008301846140c2565b92915050565b6000604051905081810181811067ffffffffffffffff8211171561451b5761451a6148cc565b5b8060405250919050565b600067ffffffffffffffff8211156145405761453f6148cc565b5b601f19601f8301169050602081019050919050565b600067ffffffffffffffff8211156145705761456f6148cc565b5b601f19601f8301169050602081019050919050565b600081519050919050565b600081519050919050565b600082825260208201905092915050565b600082825260208201905092915050565b600081905092915050565b60006145d382614747565b91506145de83614747565b9250827fffffffffffffffffffffffffffffffffffffffffffffffffffffffffffffffff038211156146135761461261483f565b5b828201905092915050565b600061462982614747565b915061463483614747565b9250826146445761464361486e565b5b828204905092915050565b600061465a82614747565b915061466583614747565b9250817fffffffffffffffffffffffffffffffffffffffffffffffffffffffffffffffff048311821515161561469e5761469d61483f565b5b828202905092915050565b60006146b482614747565b91506146bf83614747565b9250828210156146d2576146d161483f565b5b828203905092915050565b60006146e882614727565b9050919050565b60008115159050919050565b60007fffffffff0000000000000000000000000000000000000000000000000000000082169050919050565b600073ffffffffffffffffffffffffffffffffffffffff82169050919050565b6000819050919050565b82818337600083830152505050565b60005b8381101561477e578082015181840152602081019050614763565b8381111561478d576000848401525b50505050565b600060028204905060018216806147ab57607f821691505b602082108114156147bf576147be61489d565b5b50919050565b60006147d082614747565b91507fffffffffffffffffffffffffffffffffffffffffffffffffffffffffffffffff8214156148035761480261483f565b5b600182019050919050565b600061481982614747565b915061482483614747565b9250826148345761483361486e565b5b828206905092915050565b7f4e487b7100000000000000000000000000000000000000000000000000000000600052601160045260246000fd5b7f4e487b7100000000000000000000000000000000000000000000000000000000600052601260045260246000fd5b7f4e487b7100000000000000000000000000000000000000000000000000000000600052602260045260246000fd5b7f4e487b7100000000000000000000000000000000000000000000000000000000600052604160045260246000fd5b6000601f19601f8301169050919050565b614915816146dd565b811461492057600080fd5b50565b61492c816146ef565b811461493757600080fd5b50565b614943816146fb565b811461494e57600080fd5b50565b61495a81614747565b811461496557600080fd5b5056fea26469706673582212209045f61322c343082c3309b05dcca8012f89d091b89250be8f8272ddd5da9b9e64736f6c63430008000033",
  "linkReferences": {},
  "deployedLinkReferences": {}
}